{
  "abi": [
    {
      "inputs": [
        {
          "internalType": "address",
          "name": "_guessVerifier",
          "type": "address"
        },
        {
          "internalType": "address",
          "name": "_statsVerifier",
          "type": "address"
        },
        {
          "internalType": "address",
          "name": "_signer",
          "type": "address"
        }
      ],
      "stateMutability": "nonpayable",
      "type": "constructor"
    },
    {
      "anonymous": false,
      "inputs": [
        {
          "indexed": true,
          "internalType": "address",
          "name": "previousOwner",
          "type": "address"
        },
        {
          "indexed": true,
          "internalType": "address",
          "name": "newOwner",
          "type": "address"
        }
      ],
      "name": "OwnershipTransferred",
      "type": "event"
    },
    {
      "inputs": [
        {
          "internalType": "uint256",
          "name": "_solutionIndex",
          "type": "uint256"
        },
        {
          "internalType": "uint256",
          "name": "_solution",
          "type": "uint256"
        },
        {
          "internalType": "bytes",
          "name": "_signature",
          "type": "bytes"
        }
      ],
      "name": "commitSolution",
      "outputs": [],
      "stateMutability": "nonpayable",
      "type": "function"
    },
    {
      "inputs": [
        {
          "internalType": "uint256",
          "name": "_solutionIndex",
          "type": "uint256"
        },
        {
          "internalType": "uint256",
          "name": "_solution",
          "type": "uint256"
        }
      ],
      "name": "hashTransaction",
      "outputs": [
        {
          "internalType": "bytes32",
          "name": "",
          "type": "bytes32"
        }
      ],
      "stateMutability": "pure",
      "type": "function"
    },
    {
      "inputs": [
        {
          "internalType": "bytes32",
          "name": "_payload",
          "type": "bytes32"
        },
        {
          "internalType": "bytes",
          "name": "_signature",
          "type": "bytes"
        }
      ],
      "name": "matchSignerAdmin",
      "outputs": [
        {
          "internalType": "bool",
          "name": "",
          "type": "bool"
        }
      ],
      "stateMutability": "view",
      "type": "function"
    },
    {
      "inputs": [],
      "name": "owner",
      "outputs": [
        {
          "internalType": "address",
          "name": "",
          "type": "address"
        }
      ],
      "stateMutability": "view",
      "type": "function"
    },
    {
      "inputs": [],
      "name": "renounceOwnership",
      "outputs": [],
      "stateMutability": "nonpayable",
      "type": "function"
    },
    {
      "inputs": [
        {
          "internalType": "address",
          "name": "_newSigner",
          "type": "address"
        }
      ],
      "name": "setSignerAddress",
      "outputs": [],
      "stateMutability": "nonpayable",
      "type": "function"
    },
    {
      "inputs": [
        {
          "internalType": "uint256",
          "name": "",
          "type": "uint256"
        }
      ],
      "name": "solutionCommitment",
      "outputs": [
        {
          "internalType": "uint256",
          "name": "",
          "type": "uint256"
        }
      ],
      "stateMutability": "view",
      "type": "function"
    },
    {
      "inputs": [
        {
          "internalType": "address",
          "name": "newOwner",
          "type": "address"
        }
      ],
      "name": "transferOwnership",
      "outputs": [],
      "stateMutability": "nonpayable",
      "type": "function"
    },
    {
      "inputs": [
        {
          "internalType": "uint256[2]",
          "name": "a",
          "type": "uint256[2]"
        },
        {
          "internalType": "uint256[2][2]",
          "name": "b",
          "type": "uint256[2][2]"
        },
        {
          "internalType": "uint256[2]",
          "name": "c",
          "type": "uint256[2]"
        },
        {
          "internalType": "uint256[11]",
          "name": "input",
          "type": "uint256[11]"
        }
      ],
      "name": "verifyClues",
      "outputs": [
        {
          "internalType": "bool",
          "name": "",
          "type": "bool"
        }
      ],
      "stateMutability": "view",
      "type": "function"
    },
    {
      "inputs": [
        {
          "internalType": "uint256[2]",
          "name": "a",
          "type": "uint256[2]"
        },
        {
          "internalType": "uint256[2][2]",
          "name": "b",
          "type": "uint256[2][2]"
        },
        {
          "internalType": "uint256[2]",
          "name": "c",
          "type": "uint256[2]"
        },
        {
          "internalType": "uint256[11]",
          "name": "input",
          "type": "uint256[11]"
        }
      ],
      "name": "verifyStats",
      "outputs": [
        {
          "internalType": "bool",
          "name": "",
          "type": "bool"
        }
      ],
      "stateMutability": "view",
      "type": "function"
    }
  ],
  "bytecode": {
    "object": "0x6080604052600180546001600160a01b03191673f39fd6e51aad88f6f4ce6ab8827279cfffb9226617905534801561003657600080fd5b50604051610d52380380610d528339810160408190526100559161010c565b61005e336100a0565b600380546001600160a01b039485166001600160a01b03199182161790915560048054938516938216939093179092556001805491909316911617905561014f565b600080546001600160a01b038381166001600160a01b0319831681178455604051919092169283917f8be0079c531659141344cd1fd0a4f28419497f9722a3daafe3b4186f6b6457e09190a35050565b80516001600160a01b038116811461010757600080fd5b919050565b60008060006060848603121561012157600080fd5b61012a846100f0565b9250610138602085016100f0565b9150610146604085016100f0565b90509250925092565b610bf48061015e6000396000f3fe608060405234801561001057600080fd5b506004361061009e5760003560e01c8063a4bc51ac11610066578063a4bc51ac14610124578063bfd4bc1414610144578063e0f4ea9014610157578063eb19dd631461016a578063f2fde38b1461017d57600080fd5b8063046dc166146100a35780630a1c67f0146100b8578063715018a6146100e057806386dc46b7146100e85780638da5cb5b14610109575b600080fd5b6100b66100b136600461079c565b610190565b005b6100cb6100c636600461087f565b6101ba565b60405190151581526020015b60405180910390f35b6100b661023c565b6100fb6100f636600461095d565b610250565b6040519081526020016100d7565b6000546040516001600160a01b0390911681526020016100d7565b6100fb61013236600461097f565b60026020526000908152604090205481565b6100cb61015236600461087f565b6102d4565b6100cb610165366004610a25565b61030b565b6100b6610178366004610a6c565b61032f565b6100b661018b36600461079c565b610402565b61019861047b565b600180546001600160a01b0319166001600160a01b0392909216919091179055565b6004805460405163b9c6ea8760e01b81526000926001600160a01b039092169163b9c6ea87916101f291899189918991899101610adf565b602060405180830381865afa15801561020f573d6000803e3d6000fd5b505050506040513d601f19601f820116820180604052508101906102339190610b86565b95945050505050565b61024461047b565b61024e60006104d5565b565b600080838360405160200161026f929190918252602082015260400190565b60408051808303601f1901815282825280516020918201207f19457468657265756d205369676e6564204d6573736167653a0a33320000000082850152603c8085019190915282518085039091018152605c9093019091528151910120949350505050565b60035460405163b9c6ea8760e01b81526000916001600160a01b03169063b9c6ea87906101f2908890889088908890600401610adf565b60006103178383610525565b6001546001600160a01b039182169116149392505050565b600061033b8484610250565b6000858152600260205260409020549091501561039f5760405162461bcd60e51b815260206004820152601a60248201527f536f6c7574696f6e20616c726561647920636f6d6d697474656400000000000060448201526064015b60405180910390fd5b6103a9818361030b565b6103ea5760405162461bcd60e51b81526020600482015260126024820152710a6d2cedcc2e8eae4ca40dad2e6dac2e8c6d60731b6044820152606401610396565b60008481526002602052604090208390555b50505050565b61040a61047b565b6001600160a01b03811661046f5760405162461bcd60e51b815260206004820152602660248201527f4f776e61626c653a206e6577206f776e657220697320746865207a65726f206160448201526564647265737360d01b6064820152608401610396565b610478816104d5565b50565b6000546001600160a01b0316331461024e5760405162461bcd60e51b815260206004820181905260248201527f4f776e61626c653a2063616c6c6572206973206e6f7420746865206f776e65726044820152606401610396565b600080546001600160a01b038381166001600160a01b0319831681178455604051919092169283917f8be0079c531659141344cd1fd0a4f28419497f9722a3daafe3b4186f6b6457e09190a35050565b60008060006105348585610549565b915091506105418161058e565b509392505050565b600080825160410361057f5760208301516040840151606085015160001a610573878285856106d8565b94509450505050610587565b506000905060025b9250929050565b60008160048111156105a2576105a2610ba8565b036105aa5750565b60018160048111156105be576105be610ba8565b0361060b5760405162461bcd60e51b815260206004820152601860248201527f45434453413a20696e76616c6964207369676e617475726500000000000000006044820152606401610396565b600281600481111561061f5761061f610ba8565b0361066c5760405162461bcd60e51b815260206004820152601f60248201527f45434453413a20696e76616c6964207369676e6174757265206c656e677468006044820152606401610396565b600381600481111561068057610680610ba8565b036104785760405162461bcd60e51b815260206004820152602260248201527f45434453413a20696e76616c6964207369676e6174757265202773272076616c604482015261756560f01b6064820152608401610396565b6000807f7fffffffffffffffffffffffffffffff5d576e7357a4501ddfe92f46681b20a083111561070f5750600090506003610793565b6040805160008082526020820180845289905260ff881692820192909252606081018690526080810185905260019060a0016020604051602081039080840390855afa158015610763573d6000803e3d6000fd5b5050604051601f1901519150506001600160a01b03811661078c57600060019250925050610793565b9150600090505b94509492505050565b6000602082840312156107ae57600080fd5b81356001600160a01b03811681146107c557600080fd5b9392505050565b634e487b7160e01b600052604160045260246000fd5b6040805190810167ffffffffffffffff81118282101715610805576108056107cc565b60405290565b604051610160810167ffffffffffffffff81118282101715610805576108056107cc565b600082601f83011261084057600080fd5b6108486107e2565b80604084018581111561085a57600080fd5b845b8181101561087457803584526020938401930161085c565b509095945050505050565b60008060008061026080868803121561089757600080fd5b6108a1878761082f565b9450604087605f8801126108b457600080fd5b6108bc6107e2565b8060c089018a8111156108ce57600080fd5b838a015b818110156108f3576108e48c8261082f565b845260209093019284016108d2565b508197506109018b8261082f565b9650505050508661011f87011261091757600080fd5b61091f61080b565b90860190808883111561093157600080fd5b61010088015b8381101561094f578035835260209283019201610937565b509598949750929550505050565b6000806040838503121561097057600080fd5b50508035926020909101359150565b60006020828403121561099157600080fd5b5035919050565b600082601f8301126109a957600080fd5b813567ffffffffffffffff808211156109c4576109c46107cc565b604051601f8301601f19908116603f011681019082821181831017156109ec576109ec6107cc565b81604052838152866020858801011115610a0557600080fd5b836020870160208301376000602085830101528094505050505092915050565b60008060408385031215610a3857600080fd5b82359150602083013567ffffffffffffffff811115610a5657600080fd5b610a6285828601610998565b9150509250929050565b600080600060608486031215610a8157600080fd5b8335925060208401359150604084013567ffffffffffffffff811115610aa657600080fd5b610ab286828701610998565b9150509250925092565b8060005b60028110156103fc578151845260209384019390910190600101610ac0565b6102608101610aee8287610abc565b60408083018660005b6002808210610b065750610b41565b82518460005b83811015610b2a578251825260209283019290910190600101610b0c565b505050928401925060209190910190600101610af7565b50505050610b5260c0830185610abc565b61010082018360005b600b811015610b7a578151835260209283019290910190600101610b5b565b50505095945050505050565b600060208284031215610b9857600080fd5b815180151581146107c557600080fd5b634e487b7160e01b600052602160045260246000fdfea26469706673582212207e437e05e4dc85709fd7414ea2f9b16e6e055a85ea2b52dbf2bb819003e2076864736f6c634300080d0033",
    "linkReferences": {}
  },
  "methodIdentifiers": {
    "commitSolution(uint256,uint256,bytes)": "eb19dd63",
    "hashTransaction(uint256,uint256)": "86dc46b7",
    "matchSignerAdmin(bytes32,bytes)": "e0f4ea90",
    "owner()": "8da5cb5b",
    "renounceOwnership()": "715018a6",
    "setSignerAddress(address)": "046dc166",
    "solutionCommitment(uint256)": "a4bc51ac",
    "transferOwnership(address)": "f2fde38b",
    "verifyClues(uint256[2],uint256[2][2],uint256[2],uint256[11])": "bfd4bc14",
    "verifyStats(uint256[2],uint256[2][2],uint256[2],uint256[11])": "0a1c67f0"
  },
  "id": 11
}