{
  "abi": [
    {
      "inputs": [
        {
          "internalType": "address",
          "name": "_guessVerifier",
          "type": "address"
        },
        {
          "internalType": "address",
          "name": "_statsVerifier",
          "type": "address"
        },
        {
          "internalType": "address",
          "name": "_signer",
          "type": "address"
        }
      ],
      "stateMutability": "nonpayable",
      "type": "constructor"
    },
    {
      "anonymous": false,
      "inputs": [
        {
          "indexed": true,
          "internalType": "address",
          "name": "previousOwner",
          "type": "address"
        },
        {
          "indexed": true,
          "internalType": "address",
          "name": "newOwner",
          "type": "address"
        }
      ],
      "name": "OwnershipTransferred",
      "type": "event"
    },
    {
      "inputs": [
        {
          "internalType": "uint256",
          "name": "_solutionIndex",
          "type": "uint256"
        },
        {
          "internalType": "uint256",
          "name": "_solutionCommitment",
          "type": "uint256"
        },
        {
          "internalType": "bytes",
          "name": "_signature",
          "type": "bytes"
        }
      ],
      "name": "commitSolution",
      "outputs": [],
      "stateMutability": "nonpayable",
      "type": "function"
    },
    {
      "inputs": [
        {
          "internalType": "uint256",
          "name": "_solutionIndex",
          "type": "uint256"
        },
        {
          "internalType": "uint256",
          "name": "_solutionCommitment",
          "type": "uint256"
        }
      ],
      "name": "hashTransaction",
      "outputs": [
        {
          "internalType": "bytes32",
          "name": "",
          "type": "bytes32"
        }
      ],
      "stateMutability": "pure",
      "type": "function"
    },
    {
      "inputs": [
        {
          "internalType": "bytes32",
          "name": "_payload",
          "type": "bytes32"
        },
        {
          "internalType": "bytes",
          "name": "_signature",
          "type": "bytes"
        }
      ],
      "name": "matchSigner",
      "outputs": [
        {
          "internalType": "bool",
          "name": "",
          "type": "bool"
        }
      ],
      "stateMutability": "view",
      "type": "function"
    },
    {
      "inputs": [],
      "name": "owner",
      "outputs": [
        {
          "internalType": "address",
          "name": "",
          "type": "address"
        }
      ],
      "stateMutability": "view",
      "type": "function"
    },
    {
      "inputs": [],
      "name": "renounceOwnership",
      "outputs": [],
      "stateMutability": "nonpayable",
      "type": "function"
    },
    {
      "inputs": [
        {
          "internalType": "address",
          "name": "_newSigner",
          "type": "address"
        }
      ],
      "name": "setSigner",
      "outputs": [],
      "stateMutability": "nonpayable",
      "type": "function"
    },
    {
      "inputs": [
        {
          "internalType": "uint256",
          "name": "",
          "type": "uint256"
        }
      ],
      "name": "solutionCommitment",
      "outputs": [
        {
          "internalType": "uint256",
          "name": "",
          "type": "uint256"
        }
      ],
      "stateMutability": "view",
      "type": "function"
    },
    {
      "inputs": [
        {
          "internalType": "address",
          "name": "newOwner",
          "type": "address"
        }
      ],
      "name": "transferOwnership",
      "outputs": [],
      "stateMutability": "nonpayable",
      "type": "function"
    },
    {
      "inputs": [
        {
          "internalType": "bytes",
          "name": "proof",
          "type": "bytes"
        },
        {
          "internalType": "uint256[]",
          "name": "pubSignals",
          "type": "uint256[]"
        }
      ],
      "name": "verifyClues",
      "outputs": [
        {
          "internalType": "bool",
          "name": "",
          "type": "bool"
        }
      ],
      "stateMutability": "view",
      "type": "function"
    },
    {
      "inputs": [
        {
          "internalType": "bytes",
          "name": "proof",
          "type": "bytes"
        },
        {
          "internalType": "uint256[]",
          "name": "pubSignals",
          "type": "uint256[]"
        }
      ],
      "name": "verifyStats",
      "outputs": [
        {
          "internalType": "bool",
          "name": "",
          "type": "bool"
        }
      ],
      "stateMutability": "view",
      "type": "function"
    }
  ],
  "bytecode": {
    "object": "0x6080604052600180546001600160a01b03191673f39fd6e51aad88f6f4ce6ab8827279cfffb9226617905534801561003657600080fd5b50604051610c73380380610c738339810160408190526100559161010c565b61005e336100a0565b600380546001600160a01b039485166001600160a01b03199182161790915560048054938516938216939093179092556001805491909316911617905561014f565b600080546001600160a01b038381166001600160a01b0319831681178455604051919092169283917f8be0079c531659141344cd1fd0a4f28419497f9722a3daafe3b4186f6b6457e09190a35050565b80516001600160a01b038116811461010757600080fd5b919050565b60008060006060848603121561012157600080fd5b61012a846100f0565b9250610138602085016100f0565b9150610146604085016100f0565b90509250925092565b610b158061015e6000396000f3fe608060405234801561001057600080fd5b506004361061009e5760003560e01c8063a4bc51ac11610066578063a4bc51ac14610124578063dd8d74d814610144578063eb19dd6314610157578063f2fde38b1461016a578063f9b80a281461017d57600080fd5b8063384eb061146100a35780636c19e783146100cb578063715018a6146100e057806386dc46b7146100e85780638da5cb5b14610109575b600080fd5b6100b66100b1366004610845565b610190565b60405190151581526020015b60405180910390f35b6100de6100d936600461090f565b61020b565b005b6100de610235565b6100fb6100f6366004610938565b610249565b6040519081526020016100c2565b6000546040516001600160a01b0390911681526020016100c2565b6100fb61013236600461095a565b60026020526000908152604090205481565b6100b6610152366004610973565b6102cd565b6100de6101653660046109ba565b6102f1565b6100de61017836600461090f565b6103c0565b6100b661018b366004610845565b610439565b600354604051631e8e1e1360e01b81526000916001600160a01b031690631e8e1e13906101c39086908690600401610a0a565b602060405180830381865afa1580156101e0573d6000803e3d6000fd5b505050506040513d601f19601f820116820180604052508101906102049190610aa7565b9392505050565b61021361046d565b600180546001600160a01b0319166001600160a01b0392909216919091179055565b61023d61046d565b61024760006104c7565b565b6000808383604051602001610268929190918252602082015260400190565b60408051808303601f1901815282825280516020918201207f19457468657265756d205369676e6564204d6573736167653a0a33320000000082850152603c8085019190915282518085039091018152605c9093019091528151910120949350505050565b60006102d98383610517565b6001546001600160a01b039182169116149392505050565b60006102fd8484610249565b600085815260026020526040902054909150156103615760405162461bcd60e51b815260206004820152601a60248201527f536f6c7574696f6e20616c726561647920636f6d6d697474656400000000000060448201526064015b60405180910390fd5b61036b81836102cd565b6103ac5760405162461bcd60e51b81526020600482015260126024820152710a6d2cedcc2e8eae4ca40dad2e6dac2e8c6d60731b6044820152606401610358565b505060009182526002602052604090912055565b6103c861046d565b6001600160a01b03811661042d5760405162461bcd60e51b815260206004820152602660248201527f4f776e61626c653a206e6577206f776e657220697320746865207a65726f206160448201526564647265737360d01b6064820152608401610358565b610436816104c7565b50565b60048054604051631e8e1e1360e01b81526000926001600160a01b0390921691631e8e1e13916101c3918791879101610a0a565b6000546001600160a01b031633146102475760405162461bcd60e51b815260206004820181905260248201527f4f776e61626c653a2063616c6c6572206973206e6f7420746865206f776e65726044820152606401610358565b600080546001600160a01b038381166001600160a01b0319831681178455604051919092169283917f8be0079c531659141344cd1fd0a4f28419497f9722a3daafe3b4186f6b6457e09190a35050565b6000806000610526858561053b565b9150915061053381610580565b509392505050565b60008082516041036105715760208301516040840151606085015160001a610565878285856106ca565b94509450505050610579565b506000905060025b9250929050565b600081600481111561059457610594610ac9565b0361059c5750565b60018160048111156105b0576105b0610ac9565b036105fd5760405162461bcd60e51b815260206004820152601860248201527f45434453413a20696e76616c6964207369676e617475726500000000000000006044820152606401610358565b600281600481111561061157610611610ac9565b0361065e5760405162461bcd60e51b815260206004820152601f60248201527f45434453413a20696e76616c6964207369676e6174757265206c656e677468006044820152606401610358565b600381600481111561067257610672610ac9565b036104365760405162461bcd60e51b815260206004820152602260248201527f45434453413a20696e76616c6964207369676e6174757265202773272076616c604482015261756560f01b6064820152608401610358565b6000807f7fffffffffffffffffffffffffffffff5d576e7357a4501ddfe92f46681b20a08311156107015750600090506003610785565b6040805160008082526020820180845289905260ff881692820192909252606081018690526080810185905260019060a0016020604051602081039080840390855afa158015610755573d6000803e3d6000fd5b5050604051601f1901519150506001600160a01b03811661077e57600060019250925050610785565b9150600090505b94509492505050565b634e487b7160e01b600052604160045260246000fd5b604051601f8201601f1916810167ffffffffffffffff811182821017156107cd576107cd61078e565b604052919050565b600082601f8301126107e657600080fd5b813567ffffffffffffffff8111156108005761080061078e565b610813601f8201601f19166020016107a4565b81815284602083860101111561082857600080fd5b816020850160208301376000918101602001919091529392505050565b6000806040838503121561085857600080fd5b823567ffffffffffffffff8082111561087057600080fd5b61087c868387016107d5565b935060209150818501358181111561089357600080fd5b8501601f810187136108a457600080fd5b8035828111156108b6576108b661078e565b8060051b92506108c78484016107a4565b81815292820184019284810190898511156108e157600080fd5b928501925b848410156108ff578335825292850192908501906108e6565b8096505050505050509250929050565b60006020828403121561092157600080fd5b81356001600160a01b038116811461020457600080fd5b6000806040838503121561094b57600080fd5b50508035926020909101359150565b60006020828403121561096c57600080fd5b5035919050565b6000806040838503121561098657600080fd5b82359150602083013567ffffffffffffffff8111156109a457600080fd5b6109b0858286016107d5565b9150509250929050565b6000806000606084860312156109cf57600080fd5b8335925060208401359150604084013567ffffffffffffffff8111156109f457600080fd5b610a00868287016107d5565b9150509250925092565b604081526000835180604084015260005b81811015610a385760208187018101516060868401015201610a1b565b81811115610a4a576000606083860101525b50601f01601f1916820182810360609081016020808601919091528551918301829052858101926000926080909101905b80841015610a9b5784518252938201936001939093019290820190610a7b565b50979650505050505050565b600060208284031215610ab957600080fd5b8151801515811461020457600080fd5b634e487b7160e01b600052602160045260246000fdfea2646970667358221220cb7d1840fefba757fdc2ccafb4a04928166e5c5b0dcc616f37a24b223a1b20bc64736f6c634300080d0033",
    "linkReferences": {}
  },
  "methodIdentifiers": {
    "commitSolution(uint256,uint256,bytes)": "eb19dd63",
    "hashTransaction(uint256,uint256)": "86dc46b7",
    "matchSigner(bytes32,bytes)": "dd8d74d8",
    "owner()": "8da5cb5b",
    "renounceOwnership()": "715018a6",
    "setSigner(address)": "6c19e783",
    "solutionCommitment(uint256)": "a4bc51ac",
    "transferOwnership(address)": "f2fde38b",
    "verifyClues(bytes,uint256[])": "384eb061",
    "verifyStats(bytes,uint256[])": "f9b80a28"
  },
  "id": 9
}