{
  "abi": [
    {
      "inputs": [
        {
          "internalType": "address",
          "name": "_guessVerifier",
          "type": "address"
        },
        {
          "internalType": "address",
          "name": "_statsVerifier",
          "type": "address"
        },
        {
          "internalType": "address",
          "name": "_signer",
          "type": "address"
        }
      ],
      "stateMutability": "nonpayable",
      "type": "constructor"
    },
    {
      "anonymous": false,
      "inputs": [
        {
          "indexed": true,
          "internalType": "address",
          "name": "previousOwner",
          "type": "address"
        },
        {
          "indexed": true,
          "internalType": "address",
          "name": "newOwner",
          "type": "address"
        }
      ],
      "name": "OwnershipTransferred",
      "type": "event"
    },
    {
      "inputs": [
        {
          "internalType": "uint256",
          "name": "_solutionIndex",
          "type": "uint256"
        },
        {
          "internalType": "uint256",
          "name": "_solutionCommitment",
          "type": "uint256"
        },
        {
          "internalType": "bytes",
          "name": "_signature",
          "type": "bytes"
        }
      ],
      "name": "commitSolution",
      "outputs": [],
      "stateMutability": "nonpayable",
      "type": "function"
    },
    {
      "inputs": [
        {
          "internalType": "uint256",
          "name": "_solutionIndex",
          "type": "uint256"
        },
        {
          "internalType": "uint256",
          "name": "_solutionCommitment",
          "type": "uint256"
        }
      ],
      "name": "hashTransaction",
      "outputs": [
        {
          "internalType": "bytes32",
          "name": "",
          "type": "bytes32"
        }
      ],
      "stateMutability": "pure",
      "type": "function"
    },
    {
      "inputs": [
        {
          "internalType": "bytes32",
          "name": "_payload",
          "type": "bytes32"
        },
        {
          "internalType": "bytes",
          "name": "_signature",
          "type": "bytes"
        }
      ],
      "name": "matchSigner",
      "outputs": [
        {
          "internalType": "bool",
          "name": "",
          "type": "bool"
        }
      ],
      "stateMutability": "view",
      "type": "function"
    },
    {
      "inputs": [],
      "name": "owner",
      "outputs": [
        {
          "internalType": "address",
          "name": "",
          "type": "address"
        }
      ],
      "stateMutability": "view",
      "type": "function"
    },
    {
      "inputs": [],
      "name": "renounceOwnership",
      "outputs": [],
      "stateMutability": "nonpayable",
      "type": "function"
    },
    {
      "inputs": [
        {
          "internalType": "address",
          "name": "_newSigner",
          "type": "address"
        }
      ],
      "name": "setSigner",
      "outputs": [],
      "stateMutability": "nonpayable",
      "type": "function"
    },
    {
      "inputs": [
        {
          "internalType": "uint256",
          "name": "",
          "type": "uint256"
        }
      ],
      "name": "solutionCommitment",
      "outputs": [
        {
          "internalType": "uint256",
          "name": "",
          "type": "uint256"
        }
      ],
      "stateMutability": "view",
      "type": "function"
    },
    {
      "inputs": [
        {
          "internalType": "address",
          "name": "newOwner",
          "type": "address"
        }
      ],
      "name": "transferOwnership",
      "outputs": [],
      "stateMutability": "nonpayable",
      "type": "function"
    },
    {
      "inputs": [
        {
          "internalType": "uint256[2]",
          "name": "a",
          "type": "uint256[2]"
        },
        {
          "internalType": "uint256[2][2]",
          "name": "b",
          "type": "uint256[2][2]"
        },
        {
          "internalType": "uint256[2]",
          "name": "c",
          "type": "uint256[2]"
        },
        {
          "internalType": "uint256[11]",
          "name": "input",
          "type": "uint256[11]"
        }
      ],
      "name": "verifyClues",
      "outputs": [
        {
          "internalType": "bool",
          "name": "",
          "type": "bool"
        }
      ],
      "stateMutability": "view",
      "type": "function"
    },
    {
      "inputs": [
        {
          "internalType": "uint256[2]",
          "name": "a",
          "type": "uint256[2]"
        },
        {
          "internalType": "uint256[2][2]",
          "name": "b",
          "type": "uint256[2][2]"
        },
        {
          "internalType": "uint256[2]",
          "name": "c",
          "type": "uint256[2]"
        },
        {
          "internalType": "uint256[31]",
          "name": "input",
          "type": "uint256[31]"
        }
      ],
      "name": "verifyStats",
      "outputs": [
        {
          "internalType": "bool",
          "name": "",
          "type": "bool"
        }
      ],
      "stateMutability": "view",
      "type": "function"
    }
  ],
  "bytecode": {
    "object": "0x6080604052600180546001600160a01b03191673f39fd6e51aad88f6f4ce6ab8827279cfffb9226617905534801561003657600080fd5b50604051610e2d380380610e2d8339810160408190526100559161010c565b61005e336100a0565b600380546001600160a01b039485166001600160a01b03199182161790915560048054938516938216939093179092556001805491909316911617905561014f565b600080546001600160a01b038381166001600160a01b0319831681178455604051919092169283917f8be0079c531659141344cd1fd0a4f28419497f9722a3daafe3b4186f6b6457e09190a35050565b80516001600160a01b038116811461010757600080fd5b919050565b60008060006060848603121561012157600080fd5b61012a846100f0565b9250610138602085016100f0565b9150610146604085016100f0565b90509250925092565b610ccf8061015e6000396000f3fe608060405234801561001057600080fd5b506004361061009e5760003560e01c8063bfd4bc1411610066578063bfd4bc1414610121578063dd8d74d814610144578063eb19dd6314610157578063ec7e59b81461016a578063f2fde38b1461017d57600080fd5b80636c19e783146100a3578063715018a6146100b857806386dc46b7146100c05780638da5cb5b146100e6578063a4bc51ac14610101575b600080fd5b6100b66100b136600461079c565b610190565b005b6100b66101ba565b6100d36100ce3660046107cc565b6101ce565b6040519081526020015b60405180910390f35b6000546040516001600160a01b0390911681526020016100dd565b6100d361010f3660046107ee565b60026020526000908152604090205481565b61013461012f3660046108e5565b610252565b60405190151581526020016100dd565b610134610152366004610a2b565b6102d3565b6100b6610165366004610a72565b6102f7565b610134610178366004610ac2565b6103ca565b6100b661018b36600461079c565b610402565b61019861047b565b600180546001600160a01b0319166001600160a01b0392909216919091179055565b6101c261047b565b6101cc60006104d5565b565b60008083836040516020016101ed929190918252602082015260400190565b60408051808303601f1901815282825280516020918201207f19457468657265756d205369676e6564204d6573736167653a0a33320000000082850152603c8085019190915282518085039091018152605c9093019091528151910120949350505050565b60035460405163b9c6ea8760e01b81526000916001600160a01b03169063b9c6ea8790610289908890889088908890600401610bb3565b602060405180830381865afa1580156102a6573d6000803e3d6000fd5b505050506040513d601f19601f820116820180604052508101906102ca9190610c10565b95945050505050565b60006102df8383610525565b6001546001600160a01b039182169116149392505050565b600061030384846101ce565b600085815260026020526040902054909150156103675760405162461bcd60e51b815260206004820152601a60248201527f536f6c7574696f6e20616c726561647920636f6d6d697474656400000000000060448201526064015b60405180910390fd5b61037181836102d3565b6103b25760405162461bcd60e51b81526020600482015260126024820152710a6d2cedcc2e8eae4ca40dad2e6dac2e8c6d60731b604482015260640161035e565b60008481526002602052604090208390555b50505050565b600480546040516344a173dd60e01b81526000926001600160a01b03909216916344a173dd9161028991899189918991899101610c32565b61040a61047b565b6001600160a01b03811661046f5760405162461bcd60e51b815260206004820152602660248201527f4f776e61626c653a206e6577206f776e657220697320746865207a65726f206160448201526564647265737360d01b606482015260840161035e565b610478816104d5565b50565b6000546001600160a01b031633146101cc5760405162461bcd60e51b815260206004820181905260248201527f4f776e61626c653a2063616c6c6572206973206e6f7420746865206f776e6572604482015260640161035e565b600080546001600160a01b038381166001600160a01b0319831681178455604051919092169283917f8be0079c531659141344cd1fd0a4f28419497f9722a3daafe3b4186f6b6457e09190a35050565b60008060006105348585610549565b915091506105418161058e565b509392505050565b600080825160410361057f5760208301516040840151606085015160001a610573878285856106d8565b94509450505050610587565b506000905060025b9250929050565b60008160048111156105a2576105a2610c83565b036105aa5750565b60018160048111156105be576105be610c83565b0361060b5760405162461bcd60e51b815260206004820152601860248201527f45434453413a20696e76616c6964207369676e61747572650000000000000000604482015260640161035e565b600281600481111561061f5761061f610c83565b0361066c5760405162461bcd60e51b815260206004820152601f60248201527f45434453413a20696e76616c6964207369676e6174757265206c656e67746800604482015260640161035e565b600381600481111561068057610680610c83565b036104785760405162461bcd60e51b815260206004820152602260248201527f45434453413a20696e76616c6964207369676e6174757265202773272076616c604482015261756560f01b606482015260840161035e565b6000807f7fffffffffffffffffffffffffffffff5d576e7357a4501ddfe92f46681b20a083111561070f5750600090506003610793565b6040805160008082526020820180845289905260ff881692820192909252606081018690526080810185905260019060a0016020604051602081039080840390855afa158015610763573d6000803e3d6000fd5b5050604051601f1901519150506001600160a01b03811661078c57600060019250925050610793565b9150600090505b94509492505050565b6000602082840312156107ae57600080fd5b81356001600160a01b03811681146107c557600080fd5b9392505050565b600080604083850312156107df57600080fd5b50508035926020909101359150565b60006020828403121561080057600080fd5b5035919050565b634e487b7160e01b600052604160045260246000fd5b6040805190810167ffffffffffffffff8111828210171561084057610840610807565b60405290565b600082601f83011261085757600080fd5b61085f61081d565b80604084018581111561087157600080fd5b845b8181101561088b578035845260209384019301610873565b509095945050505050565b600082601f8301126108a757600080fd5b6108af61081d565b8060808401858111156108c157600080fd5b845b8181101561088b576108d58782610846565b84526020909301926040016108c3565b6000806000806102608086880312156108fd57600080fd5b6109078787610846565b94506109168760408801610896565b93506109258760c08801610846565b92508661011f87011261093757600080fd5b604051610160810181811067ffffffffffffffff8211171561095b5761095b610807565b60405290860190808883111561097057600080fd5b61010088015b8381101561098e578035825260209182019101610976565b5050809250505092959194509250565b600082601f8301126109af57600080fd5b813567ffffffffffffffff808211156109ca576109ca610807565b604051601f8301601f19908116603f011681019082821181831017156109f2576109f2610807565b81604052838152866020858801011115610a0b57600080fd5b836020870160208301376000602085830101528094505050505092915050565b60008060408385031215610a3e57600080fd5b82359150602083013567ffffffffffffffff811115610a5c57600080fd5b610a688582860161099e565b9150509250929050565b600080600060608486031215610a8757600080fd5b8335925060208401359150604084013567ffffffffffffffff811115610aac57600080fd5b610ab88682870161099e565b9150509250925092565b6000806000806104e0808688031215610ada57600080fd5b610ae48787610846565b9450610af38760408801610896565b9350610b028760c08801610846565b92508661011f870112610b1457600080fd5b6040516103e0810181811067ffffffffffffffff8211171561095b5761095b610807565b8060005b60028110156103c4578151845260209384019390910190600101610b3c565b806000805b6002808210610b6f5750610bac565b835186845b83811015610b92578251825260209283019290910190600101610b74565b505050604095909501945060209290920191600101610b60565b5050505050565b6102608101610bc28287610b38565b610bcf6040830186610b5b565b610bdc60c0830185610b38565b61010082018360005b600b811015610c04578151835260209283019290910190600101610be5565b50505095945050505050565b600060208284031215610c2257600080fd5b815180151581146107c557600080fd5b6104e08101610c418287610b38565b610c4e6040830186610b5b565b610c5b60c0830185610b38565b61010082018360005b601f811015610c04578151835260209283019290910190600101610c64565b634e487b7160e01b600052602160045260246000fdfea264697066735822122083b771b79edb1bbae0ce56a038b5c67f3e07d4e49e6b69a6b363d89e6f0a499364736f6c634300080d0033",
    "linkReferences": {}
  },
  "methodIdentifiers": {
    "commitSolution(uint256,uint256,bytes)": "eb19dd63",
    "hashTransaction(uint256,uint256)": "86dc46b7",
    "matchSigner(bytes32,bytes)": "dd8d74d8",
    "owner()": "8da5cb5b",
    "renounceOwnership()": "715018a6",
    "setSigner(address)": "6c19e783",
    "solutionCommitment(uint256)": "a4bc51ac",
    "transferOwnership(address)": "f2fde38b",
    "verifyClues(uint256[2],uint256[2][2],uint256[2],uint256[11])": "bfd4bc14",
    "verifyStats(uint256[2],uint256[2][2],uint256[2],uint256[31])": "ec7e59b8"
  },
  "id": 11
}